:100000000C9446000C9465000C9465000C946500FB
:100010000C9465000C9465000C9465000C946500CC
:100020000C9465000C9465000C9465000C946500BC
:100030000C9465000C9465000C9465000C946500AC
:100040000C9465000C9465000C9465000C9465009C
:100050000C9465000C9465000C9465000C9465008C
:100060000C9465000C9465000C9465000C9465007C
:100070000C9465000C9465000C9465000C9465006C
:100080000C9465000C9465000C94650011241FBE4F
:10009000CFEFD0E4DEBFCDBF11E0A0E0B1E0E6ECF1
:1000A000F1E000E00BBF02C007900D92AE30B10747
:1000B000D9F711E0AEE0B1E001C01D92A031B10767
:1000C000E1F70E94D1000C94E1000C940000CF9362
:1000D000C82F8A3019F48DE00E9467009091C0000B
:1000E00095FFFCCFC093C60080E090E0CF910895CB
:1000F00048B1982F91708695817020910E013091B2
:100100000F012130310561F020F02230310591F1ED
:10011000089581E090E090930F0180930E0108957F
:1001200091110AC0811108C082E090E090930F0104
:1001300080930E0118B8089591110DC0813059F4C3
:1001400082E090E090930F0180930E01493041F1DD
:100150004F5F48B90895913019F5811121C082E0AF
:1001600090E090930F0180930E014423C9F0415019
:1001700048B90895913049F4813039F481E090E034
:1001800090930F0180930E010895911109C0811180
:1001900007C081E090E090930F0180930E0118B8A2
:1001A000089511B88FEF82B987B918B810920F016E
:1001B00010920E0180B197E095B90E94780080B14D
:0601C000FCCFF894FFCF14
:0E01C6000000000200000000670000000000C2
:00000001FF
